{
  "contractName": "Quiz",
  "abi": [
    {
      "inputs": [],
      "stateMutability": "payable",
      "type": "constructor",
      "payable": true
    },
    {
      "inputs": [],
      "name": "ended",
      "outputs": [
        {
          "internalType": "bool",
          "name": "",
          "type": "bool"
        }
      ],
      "stateMutability": "view",
      "type": "function",
      "constant": true
    },
    {
      "stateMutability": "payable",
      "type": "receive",
      "payable": true
    },
    {
      "inputs": [],
      "name": "fund",
      "outputs": [],
      "stateMutability": "payable",
      "type": "function",
      "payable": true
    },
    {
      "inputs": [],
      "name": "end",
      "outputs": [],
      "stateMutability": "nonpayable",
      "type": "function"
    },
    {
      "inputs": [],
      "name": "reset",
      "outputs": [],
      "stateMutability": "nonpayable",
      "type": "function"
    },
    {
      "inputs": [],
      "name": "reward",
      "outputs": [],
      "stateMutability": "nonpayable",
      "type": "function"
    }
  ],
  "bytecode": "0x608060405260008060006101000a81548160ff02191690831515021790555033600060016101000a81548173ffffffffffffffffffffffffffffffffffffffff021916908373ffffffffffffffffffffffffffffffffffffffff160217905550610c5c8061006e6000396000f3fe60806040526004361061004e5760003560e01c806312fa6feb146102fd578063228cb7331461032c578063b60d428814610343578063d826f88f1461034d578063efbe1c1c14610364576102f8565b366102f8576000809054906101000a900460ff16156100d5576040517f08c379a000000000000000000000000000000000000000000000000000000000815260040180806020018281038252600a8152602001807f7175697a20656e6465640000000000000000000000000000000000000000000081525060200191505060405180910390fd5b670de0b6b3a764000034600260003373ffffffffffffffffffffffffffffffffffffffff1673ffffffffffffffffffffffffffffffffffffffff16815260200190815260200160002054011115610194576040517f08c379a000000000000000000000000000000000000000000000000000000000815260040180806020018281038252601e8152602001807f6d61782e2031207844616920616c6c6f7765642070657220726f756e6421000081525060200191505060405180910390fd5b34600260003373ffffffffffffffffffffffffffffffffffffffff1673ffffffffffffffffffffffffffffffffffffffff1681526020019081526020016000206000828254019250508190555060001515600360003373ffffffffffffffffffffffffffffffffffffffff1673ffffffffffffffffffffffffffffffffffffffff16815260200190815260200160002060009054906101000a900460ff16151514156102f6576001339080600181540180825580915050600190039060005260206000200160009091909190916101000a81548173ffffffffffffffffffffffffffffffffffffffff021916908373ffffffffffffffffffffffffffffffffffffffff1602179055506001600360003373ffffffffffffffffffffffffffffffffffffffff1673ffffffffffffffffffffffffffffffffffffffff16815260200190815260200160002060006101000a81548160ff0219169083151502179055505b005b600080fd5b34801561030957600080fd5b5061031261037b565b604051808215151515815260200191505060405180910390f35b34801561033857600080fd5b5061034161038d565b005b61034b61063d565b005b34801561035957600080fd5b50610362610702565b005b34801561037057600080fd5b50610379610983565b005b6000809054906101000a900460ff1681565b600060019054906101000a900473ffffffffffffffffffffffffffffffffffffffff1673ffffffffffffffffffffffffffffffffffffffff163373ffffffffffffffffffffffffffffffffffffffff1614610450576040517f08c379a000000000000000000000000000000000000000000000000000000000815260040180806020018281038252600a8152602001807f4f6e6c79204f776e65720000000000000000000000000000000000000000000081525060200191505060405180910390fd5b6000809054906101000a900460ff16156104d2576040517f08c379a000000000000000000000000000000000000000000000000000000000815260040180806020018281038252600a8152602001807f7175697a20656e6465640000000000000000000000000000000000000000000081525060200191505060405180910390fd5b60008090505b60018054905081101561063257600181815481106104f257fe5b9060005260206000200160009054906101000a900473ffffffffffffffffffffffffffffffffffffffff1673ffffffffffffffffffffffffffffffffffffffff166108fc600260006001858154811061054757fe5b9060005260206000200160009054906101000a900473ffffffffffffffffffffffffffffffffffffffff1673ffffffffffffffffffffffffffffffffffffffff1673ffffffffffffffffffffffffffffffffffffffff16815260200190815260200160002054600263ffffffff16029081150290604051600060405180830381858888f19350505050610625576040517f08c379a000000000000000000000000000000000000000000000000000000000815260040180806020018281038252603a815260200180610bed603a913960400191505060405180910390fd5b80806001019150506104d8565b5061063b610702565b565b600060019054906101000a900473ffffffffffffffffffffffffffffffffffffffff1673ffffffffffffffffffffffffffffffffffffffff163373ffffffffffffffffffffffffffffffffffffffff1614610700576040517f08c379a000000000000000000000000000000000000000000000000000000000815260040180806020018281038252600a8152602001807f4f6e6c79204f776e65720000000000000000000000000000000000000000000081525060200191505060405180910390fd5b565b600060019054906101000a900473ffffffffffffffffffffffffffffffffffffffff1673ffffffffffffffffffffffffffffffffffffffff163373ffffffffffffffffffffffffffffffffffffffff16146107c5576040517f08c379a000000000000000000000000000000000000000000000000000000000815260040180806020018281038252600a8152602001807f4f6e6c79204f776e65720000000000000000000000000000000000000000000081525060200191505060405180910390fd5b6000809054906101000a900460ff1615610847576040517f08c379a000000000000000000000000000000000000000000000000000000000815260040180806020018281038252600a8152602001807f7175697a20656e6465640000000000000000000000000000000000000000000081525060200191505060405180910390fd5b60008090505b600180549050811015610972576000600260006001848154811061086d57fe5b9060005260206000200160009054906101000a900473ffffffffffffffffffffffffffffffffffffffff1673ffffffffffffffffffffffffffffffffffffffff1673ffffffffffffffffffffffffffffffffffffffff16815260200190815260200160002081905550600060036000600184815481106108e957fe5b9060005260206000200160009054906101000a900473ffffffffffffffffffffffffffffffffffffffff1673ffffffffffffffffffffffffffffffffffffffff1673ffffffffffffffffffffffffffffffffffffffff16815260200190815260200160002060006101000a81548160ff021916908315150217905550808060010191505061084d565b50600160006109819190610ba6565b565b600060019054906101000a900473ffffffffffffffffffffffffffffffffffffffff1673ffffffffffffffffffffffffffffffffffffffff163373ffffffffffffffffffffffffffffffffffffffff1614610a46576040517f08c379a000000000000000000000000000000000000000000000000000000000815260040180806020018281038252600a8152602001807f4f6e6c79204f776e65720000000000000000000000000000000000000000000081525060200191505060405180910390fd5b6000809054906101000a900460ff1615610ac8576040517f08c379a000000000000000000000000000000000000000000000000000000000815260040180806020018281038252600d8152602001807f616c726561647920656e6465640000000000000000000000000000000000000081525060200191505060405180910390fd5b600060018054905014610b43576040517f08c379a000000000000000000000000000000000000000000000000000000000815260040180806020018281038252601a8152602001807f6669727374206e65656420746f207265776172642f726573657400000000000081525060200191505060405180910390fd5b60016000806101000a81548160ff0219169083151502179055503373ffffffffffffffffffffffffffffffffffffffff166108fc479081150290604051600060405180830381858888f19350505050158015610ba3573d6000803e3d6000fd5b50565b5080546000825590600052602060002090810190610bc49190610bc7565b50565b610be991905b80821115610be5576000816000905550600101610bcd565b5090565b9056fe73656e64696e67206661696c6564202d20696e737566666963656e742066756e64733f204164642066756e647320616e2074727920616761696ea264697066735822122085ab80369efe25d463881d28b58a1475f09106be7f3507520000dbc274673bd964736f6c63430006010033",
  "source": "pragma solidity 0.6.1;\n\ncontract Quiz {\n    \n    uint32 constant rewardfactor = 2;\n    bool public ended = false;\n     \n    address owner;\n    \n    //These need to be reset after every round\n    address payable[] voters;\n    mapping(address => uint256) amount;\n    mapping(address => bool) inArray;\n    \n    // Deployer will be the owner\n    constructor() public payable {\n        owner = msg.sender;\n    }\n    \n    modifier onlyOwner() {\n        require(msg.sender == owner, \"Only Owner\");\n        _;\n    }\n    \n    //Allows the owner to deposit funds into the contract without voting\n    function fund() external payable onlyOwner {}\n\n    function end() external onlyOwner {\n        require(!ended, \"already ended\");\n        require(voters.length == 0, \"first need to reward/reset\");\n        ended = true;\n        msg.sender.transfer(address(this).balance);\n    }\n\n    //Everyone can vote by sending up to one xDai\n    //Note - supports multiple contributions per round up to a total of 1 xDai (prevents to send more)\n    receive() payable external{\n        require(!ended, \"quiz ended\");\n        require(amount[msg.sender] + msg.value <= 1 ether, \"max. 1 xDai allowed per round!\");\n        amount[msg.sender] += msg.value;\n        \n        //Caution, only add the address to the array of voters once, to prevent multiple payout\n        if (inArray[msg.sender] == false){\n                voters.push(msg.sender);\n                inArray[msg.sender] = true;\n        }\n    }\n    \n    //Allows the admin to reset if this was not the correct answer\n    function reset() public onlyOwner{\n        require(!ended, \"quiz ended\");\n        for (uint i = 0; i < voters.length; i++){\n            //reset both mappings\n            amount[voters[i]] = 0;\n            inArray[voters[i]] = false;\n        }\n        //delete the array\n        delete voters;\n    }\n    \n    //Allows the admin to reward the voters if this was the correct answer\n    function reward() public onlyOwner{\n        require(!ended, \"quiz ended\");\n        for (uint i = 0; i < voters.length; i++){\n            require(voters[i].send(rewardfactor*amount[voters[i]]), \"sending failed - insufficent funds? Add funds an try again\");\n        }\n        // Reset everything to be ready for new round\n        reset();\n    }\n}",
  "sourcePath": "/Users/armi/Projects/pwc_quiz/contracts/Quiz.sol",
  "compiler": {
    "name": "solc",
    "version": "0.6.1+commit.e6f7d5a4.Emscripten.clang"
  },
  "schemaVersion": "3.0.21",
  "updatedAt": "2020-01-22T13:06:12.943Z",
  "networkType": "ethereum",
  "devdoc": {
    "methods": {}
  },
  "userdoc": {
    "methods": {}
  }
}