{
  "contractName": "Quiz",
  "abi": [
    {
      "inputs": [
        {
          "internalType": "address[]",
          "name": "_whitelist",
          "type": "address[]"
        }
      ],
      "stateMutability": "payable",
      "type": "constructor",
      "payable": true
    },
    {
      "inputs": [],
      "name": "ended",
      "outputs": [
        {
          "internalType": "bool",
          "name": "",
          "type": "bool"
        }
      ],
      "stateMutability": "view",
      "type": "function",
      "constant": true
    },
    {
      "inputs": [],
      "name": "totalAmount",
      "outputs": [
        {
          "internalType": "uint256",
          "name": "",
          "type": "uint256"
        }
      ],
      "stateMutability": "view",
      "type": "function",
      "constant": true
    },
    {
      "stateMutability": "payable",
      "type": "receive",
      "payable": true
    },
    {
      "inputs": [
        {
          "internalType": "address",
          "name": "_a",
          "type": "address"
        }
      ],
      "name": "addToWhitelist",
      "outputs": [],
      "stateMutability": "nonpayable",
      "type": "function"
    },
    {
      "inputs": [],
      "name": "fund",
      "outputs": [],
      "stateMutability": "payable",
      "type": "function",
      "payable": true
    },
    {
      "inputs": [],
      "name": "end",
      "outputs": [],
      "stateMutability": "nonpayable",
      "type": "function"
    },
    {
      "inputs": [],
      "name": "reset",
      "outputs": [],
      "stateMutability": "nonpayable",
      "type": "function"
    },
    {
      "inputs": [],
      "name": "reward",
      "outputs": [],
      "stateMutability": "nonpayable",
      "type": "function"
    }
  ],
  "bytecode": "0x608060405260008060006101000a81548160ff02191690831515021790555060006001556040516110963803806110968339818101604052602081101561004557600080fd5b810190808051604051939291908464010000000082111561006557600080fd5b8382019150602082018581111561007b57600080fd5b825186602082028301116401000000008211171561009857600080fd5b8083526020830192505050908051906020019060200280838360005b838110156100cf5780820151818401526020810190506100b4565b5050505090500160405250505033600260006101000a81548173ffffffffffffffffffffffffffffffffffffffff021916908373ffffffffffffffffffffffffffffffffffffffff16021790555060008090505b81518110156101a45760016006600084848151811061013e57fe5b602002602001015173ffffffffffffffffffffffffffffffffffffffff1673ffffffffffffffffffffffffffffffffffffffff16815260200190815260200160002060006101000a81548160ff0219169083151502179055508080600101915050610123565b5050610ee1806101b56000396000f3fe6080604052600436106100745760003560e01c8063b60d42881161004e578063b60d4288146104d9578063d826f88f146104e3578063e43252d7146104fa578063efbe1c1c1461054b57610463565b806312fa6feb146104685780631a39d8ef14610497578063228cb733146104c257610463565b3661046357600660003373ffffffffffffffffffffffffffffffffffffffff1673ffffffffffffffffffffffffffffffffffffffff16815260200190815260200160002060009054906101000a900460ff16610138576040517f08c379a00000000000000000000000000000000000000000000000000000000081526004018080602001828103825260108152602001807f6f6e6c792077686974656c69737465640000000000000000000000000000000081525060200191505060405180910390fd5b6000809054906101000a900460ff16156101ba576040517f08c379a000000000000000000000000000000000000000000000000000000000815260040180806020018281038252600a8152602001807f7175697a20656e6465640000000000000000000000000000000000000000000081525060200191505060405180910390fd5b60003411610230576040517f08c379a00000000000000000000000000000000000000000000000000000000081526004018080602001828103825260168152602001807f6e65656420746f2073656e6420736f6d6520784461690000000000000000000081525060200191505060405180910390fd5b670de0b6b3a764000034600460003373ffffffffffffffffffffffffffffffffffffffff1673ffffffffffffffffffffffffffffffffffffffff168152602001908152602001600020540111156102ef576040517f08c379a000000000000000000000000000000000000000000000000000000000815260040180806020018281038252601e8152602001807f6d61782e2031207844616920616c6c6f7765642070657220726f756e6421000081525060200191505060405180910390fd5b34600460003373ffffffffffffffffffffffffffffffffffffffff1673ffffffffffffffffffffffffffffffffffffffff168152602001908152602001600020600082825401925050819055503460016000828254019250508190555060001515600560003373ffffffffffffffffffffffffffffffffffffffff1673ffffffffffffffffffffffffffffffffffffffff16815260200190815260200160002060009054906101000a900460ff1615151415610461576003339080600181540180825580915050600190039060005260206000200160009091909190916101000a81548173ffffffffffffffffffffffffffffffffffffffff021916908373ffffffffffffffffffffffffffffffffffffffff1602179055506001600560003373ffffffffffffffffffffffffffffffffffffffff1673ffffffffffffffffffffffffffffffffffffffff16815260200190815260200160002060006101000a81548160ff0219169083151502179055505b005b600080fd5b34801561047457600080fd5b5061047d610562565b604051808215151515815260200191505060405180910390f35b3480156104a357600080fd5b506104ac610574565b6040518082815260200191505060405180910390f35b3480156104ce57600080fd5b506104d761057a565b005b6104e16107d6565b005b3480156104ef57600080fd5b506104f861089b565b005b34801561050657600080fd5b506105496004803603602081101561051d57600080fd5b81019080803573ffffffffffffffffffffffffffffffffffffffff169060200190929190505050610b24565b005b34801561055757600080fd5b50610560610c42565b005b6000809054906101000a900460ff1681565b60015481565b600260009054906101000a900473ffffffffffffffffffffffffffffffffffffffff1673ffffffffffffffffffffffffffffffffffffffff163373ffffffffffffffffffffffffffffffffffffffff161461063d576040517f08c379a000000000000000000000000000000000000000000000000000000000815260040180806020018281038252600a8152602001807f4f6e6c79204f776e65720000000000000000000000000000000000000000000081525060200191505060405180910390fd5b6000809054906101000a900460ff16156106bf576040517f08c379a000000000000000000000000000000000000000000000000000000000815260040180806020018281038252600a8152602001807f7175697a20656e6465640000000000000000000000000000000000000000000081525060200191505060405180910390fd5b60008090505b6003805490508110156107cb57600381815481106106df57fe5b9060005260206000200160009054906101000a900473ffffffffffffffffffffffffffffffffffffffff1673ffffffffffffffffffffffffffffffffffffffff166108fc600460006003858154811061073457fe5b9060005260206000200160009054906101000a900473ffffffffffffffffffffffffffffffffffffffff1673ffffffffffffffffffffffffffffffffffffffff1673ffffffffffffffffffffffffffffffffffffffff16815260200190815260200160002054600263ffffffff16029081150290604051600060405180830381858888f193505050505080806001019150506106c5565b506107d461089b565b565b600260009054906101000a900473ffffffffffffffffffffffffffffffffffffffff1673ffffffffffffffffffffffffffffffffffffffff163373ffffffffffffffffffffffffffffffffffffffff1614610899576040517f08c379a000000000000000000000000000000000000000000000000000000000815260040180806020018281038252600a8152602001807f4f6e6c79204f776e65720000000000000000000000000000000000000000000081525060200191505060405180910390fd5b565b600260009054906101000a900473ffffffffffffffffffffffffffffffffffffffff1673ffffffffffffffffffffffffffffffffffffffff163373ffffffffffffffffffffffffffffffffffffffff161461095e576040517f08c379a000000000000000000000000000000000000000000000000000000000815260040180806020018281038252600a8152602001807f4f6e6c79204f776e65720000000000000000000000000000000000000000000081525060200191505060405180910390fd5b6000809054906101000a900460ff16156109e0576040517f08c379a000000000000000000000000000000000000000000000000000000000815260040180806020018281038252600a8152602001807f7175697a20656e6465640000000000000000000000000000000000000000000081525060200191505060405180910390fd5b60008090505b600380549050811015610b0b5760006004600060038481548110610a0657fe5b9060005260206000200160009054906101000a900473ffffffffffffffffffffffffffffffffffffffff1673ffffffffffffffffffffffffffffffffffffffff1673ffffffffffffffffffffffffffffffffffffffff1681526020019081526020016000208190555060006005600060038481548110610a8257fe5b9060005260206000200160009054906101000a900473ffffffffffffffffffffffffffffffffffffffff1673ffffffffffffffffffffffffffffffffffffffff1673ffffffffffffffffffffffffffffffffffffffff16815260200190815260200160002060006101000a81548160ff02191690831515021790555080806001019150506109e6565b5060036000610b1a9190610e65565b6000600181905550565b600260009054906101000a900473ffffffffffffffffffffffffffffffffffffffff1673ffffffffffffffffffffffffffffffffffffffff163373ffffffffffffffffffffffffffffffffffffffff1614610be7576040517f08c379a000000000000000000000000000000000000000000000000000000000815260040180806020018281038252600a8152602001807f4f6e6c79204f776e65720000000000000000000000000000000000000000000081525060200191505060405180910390fd5b6001600660008373ffffffffffffffffffffffffffffffffffffffff1673ffffffffffffffffffffffffffffffffffffffff16815260200190815260200160002060006101000a81548160ff02191690831515021790555050565b600260009054906101000a900473ffffffffffffffffffffffffffffffffffffffff1673ffffffffffffffffffffffffffffffffffffffff163373ffffffffffffffffffffffffffffffffffffffff1614610d05576040517f08c379a000000000000000000000000000000000000000000000000000000000815260040180806020018281038252600a8152602001807f4f6e6c79204f776e65720000000000000000000000000000000000000000000081525060200191505060405180910390fd5b6000809054906101000a900460ff1615610d87576040517f08c379a000000000000000000000000000000000000000000000000000000000815260040180806020018281038252600d8152602001807f616c726561647920656e6465640000000000000000000000000000000000000081525060200191505060405180910390fd5b600060038054905014610e02576040517f08c379a000000000000000000000000000000000000000000000000000000000815260040180806020018281038252601a8152602001807f6669727374206e65656420746f207265776172642f726573657400000000000081525060200191505060405180910390fd5b60016000806101000a81548160ff0219169083151502179055503373ffffffffffffffffffffffffffffffffffffffff166108fc479081150290604051600060405180830381858888f19350505050158015610e62573d6000803e3d6000fd5b50565b5080546000825590600052602060002090810190610e839190610e86565b50565b610ea891905b80821115610ea4576000816000905550600101610e8c565b5090565b9056fea2646970667358221220ac7fee6c4a10e5cbaa8265bfe42269d0d5b5aff06bdcc96987cd2b2e7e74520b64736f6c63430006010033",
  "source": "pragma solidity 0.6.1;\n\ncontract Quiz {\n    \n    uint32 constant rewardfactor = 2;\n    bool public ended = false;\n    uint public totalAmount = 0;\n     \n    address owner;\n    \n    //These need to be reset after every round\n    address payable[] voters;\n    mapping(address => uint256) amount;\n    mapping(address => bool) inArray;\n    \n    mapping(address => bool ) whitelist;\n\n    // Deployer will be the owner\n    constructor(address[] memory _whitelist) public payable {\n        owner = msg.sender;\n        for (uint i = 0; i < _whitelist.length; i++) {\n            whitelist[_whitelist[i]] = true;\n        }\n    }\n    \n    modifier onlyWhitelisted { require(whitelist[msg.sender], \"only whitelisted\"); _; }\n    modifier onlyOwner() { require(msg.sender == owner, \"Only Owner\"); _; }\n    \n    function addToWhitelist(address _a) public onlyOwner {\n        whitelist[_a] = true;\n    }\n    \n    //Allows the owner to deposit funds into the contract without voting\n    function fund() external payable onlyOwner {}\n\n    function end() external onlyOwner {\n        require(!ended, \"already ended\");\n        require(voters.length == 0, \"first need to reward/reset\");\n        ended = true;\n        msg.sender.transfer(address(this).balance);\n    }\n\n    //Everyone can vote by sending up to one xDai\n    //Note - supports multiple contributions per round up to a total of 1 xDai (prevents to send more)\n    receive() payable external onlyWhitelisted {\n        require(!ended, \"quiz ended\");\n        require(msg.value > 0, \"need to send some xDai\");\n        require(amount[msg.sender] + msg.value <= 1 ether, \"max. 1 xDai allowed per round!\");\n        amount[msg.sender] += msg.value;\n        totalAmount += msg.value;\n        \n        //Caution, only add the address to the array of voters once, to prevent multiple payout\n        if (inArray[msg.sender] == false){\n                voters.push(msg.sender);\n                inArray[msg.sender] = true;\n        }\n    }\n    \n    //Allows the admin to reset if this was not the correct answer\n    function reset() public onlyOwner{\n        require(!ended, \"quiz ended\");\n        for (uint i = 0; i < voters.length; i++){\n            //reset both mappings\n            amount[voters[i]] = 0;\n            inArray[voters[i]] = false;\n        }\n        //delete the array\n        delete voters;\n\n        totalAmount = 0;\n    }\n    \n    //Allows the admin to reward the voters if this was the correct answer\n    function reward() public onlyOwner{\n        require(!ended, \"quiz ended\");\n        for (uint i = 0; i < voters.length; i++){\n            voters[i].send(rewardfactor*amount[voters[i]]);\n        }\n        // Reset everything to be ready for new round\n        reset();\n    }\n}",
  "sourcePath": "/Users/armi/Projects/pwc_quiz/contracts/Quiz.sol",
  "compiler": {
    "name": "solc",
    "version": "0.6.1+commit.e6f7d5a4.Emscripten.clang"
  },
  "schemaVersion": "3.0.21",
  "updatedAt": "2020-01-22T15:11:50.520Z",
  "networkType": "ethereum",
  "devdoc": {
    "methods": {}
  },
  "userdoc": {
    "methods": {}
  }
}